:020000003128A5
:100008007E1480314E01961E0A280B2813288C1E58
:100018000E280F28132882312A2280312F280B1FFF
:10002800162817282F28171D1A281B2826280D1DC3
:100038001E281F28262840012B088A002A080A00A3
:1000480080312F28971C29282A282F288D1C2D28F5
:100058002E282F281F287E100900322824308400DB
:1000680081308500A0308600003087004030823122
:1000780078228031F701F801F901FA012030840073
:10008800003085000D3082317E2280317E104001A3
:10009800BE29E03040012D05B30007302E05B4001D
:1000A80000308B1B0130B50034082E06031D5E2876
:1000B80033082D060319612862286428FF30BA28FE
:1000C8008B132E08F4002D08F3008131872180312D
:1000D80050011E131E159E164001B6012D08500131
:1000E8009A0040012E0850019B00400136352F0729
:1000F800B000300886008701010850019C004001CB
:1001080036352F07B000300886008701403FB10020
:10011800413FB200320850019D001F3040013606B1
:10012800031D972898289A2850019E12553050018F
:100138009F00AA309F009E1400000000013040017B
:10014800AD070030AE3D0130B0003008B6072030B2
:100158003602031CB028B128722850011E11400134
:10016800350C031C8B1303188B17003008008231E1
:10017800B4228031823171228031003A0319C528B6
:10018800C628D4288231A5228031003A0319CD2807
:10019800CE28D1280130F7000A290230F7000A29B1
:1001A8008231A5228031003A0319DB28DC28DF28B8
:1001B8000330F7000A290430F7000A298231532254
:1001C800803182316A228031003A0319EC28ED2807
:1001D80020298231392280312029823153228031ED
:1001E800202982316A228031003A0319FC28FD282F
:1001F8002029ED288231AA228031003A03190529E5
:100208000629202982314622803120297708F100E9
:10021800F2017208003A0319122920297108013ADB
:100228000319E228033A0319F128013A0319F528BA
:10023800073A0319FE2820298231B12280310800AB
:100248005534153401340034023400340334003496
:1002580004340034053400340634003407340034E0
:1002680008340034093400340A3400340B340034C0
:100278000C3400340D3400340D3400340F340034A1
:100288001034003411340034123400341334003480
:100298001434003415340034163400341734003460
:1002A80018340034193400341A3400341B34003440
:1002B8001C3400341D3400341E3400341F34003420
:1002C800400198019A013B3092003F3094007E0132
:1002D800CE010730B800B901CF01BA01D0013730DB
:1002E800BB003F30D1003F30BC003F30D200073068
:1002F800A00010307D01C50008307E01A10011303A
:100308007D01C600080000308B1B0130F5008B13FF
:10031800730850019A0074089B001E131E161E15C0
:1003280055309F00AA309F009E1400000000500125
:100338001E11750C031C8B1303188B1708008030D3
:10034800F3000730F4008131D7218131553073062D
:100358001530031974060319B229B329BD29803051
:100368004001AD000730AE00A030AF0080314D2015
:100378008131080082311A2281318131A3218131F2
:100388008B170B1740010E083C39B7000C083039A1
:10039800B8003708F6000230F636890BD0297608FF
:1003A800B900C629312800308B1B0130F5008B13AA
:1003B800730850019A0074089B001E131E14000055
:1003C8000000750C031C8B1303188B1750011D08B4
:1003D800F4001C08F30008000130F0007008FA0768
:1003E8000A307A06031DF929FA29FC294001181553
:1003F80014307A06031D012A022A052A4001181121
:10040800FA01080069304B019F009B309D009C0158
:100418004E018C129616F030F3000130F400823150
:100428008422823180304B019E0008008231602294
:10043800823181316421823182318A228231823152
:10044800AE22823182310622823108004E018C129E
:1004580040013A083B040319322A332A382A3B0858
:100468008A003A080A008231080040012608270459
:1004780003193F2A402A452A27088A0026080A0025
:100488008231080040012808290403194C2A4D2A02
:10049800522A29088A0028080A00823108004001E7
:1004A800240825040319592A5A2A5F2A25088A008C
:1004B80024080A0082310800403043018F000630CA
:1004C800F30073089004910190120800031043018F
:1004D8000F1C03140030093D0800031043018F1E50
:1004E80003140030093D0800FE0012001E00FE0B38
:1004F800792A0034640080010131890B7F2A003495
:1005080074084001BB007308BA000800510191014A
:1005180003309300920108008231B72282314001F2
:10052800AC000800790882319B2282310800F00073
:10053800700843018C0008008231B7228231F8002C
:10054800080043010F0C890C0139080043010F080A
:100558000139080050018C010800430110160800F9
:0C0568004E018D10080043010C08080033
:020000040001F9
:08000000FF3FFF3FFF3FFF3F00
:0A000E00CD3FE73FFF3FEF3FFF3F0C
:00000001FF
