:020000003128A5
:100008007E1480314E01961E0A280B2813288C1E58
:100018000E280F2813288231512280312F280B1FD8
:10002800162817282F28171D1A281B2826280D1DC3
:100038001E281F28262840013A088A0039080A0085
:1000480080312F28971C29282A282F288D1C2D28F5
:100058002E282F281F287E100900322823308400DC
:1000680081308500A0308600003087004030823122
:100078009F228031F801F901FA012F308400003005
:1000880085000E308231A52280317E104001B029D2
:10009800E03040012005A60007302105A700003008
:1000A8008B1B0130A80027082106031D5D282608A0
:1000B80020060319602861286328FF30B9288B13AC
:1000C8002108F4002008F3008131D2218031500149
:1000D8001E131E159E164001A901200850019A0002
:1000E8004001210850019B00400129352207A30047
:1000F800230886008701010850019C00400129352A
:100108002207A300230886008701403FA400413F3F
:10011800A500250850019D001F3040012906031D38
:1001280096289728992850019E12553050019F0013
:10013800AA309F009E140000000001304001A00773
:100148000030A13D0130A3002308A907203029026F
:10015800031CAF28B028712850011E114001280C3B
:10016800031C8B1303188B17003008008231DC2224
:100178008031823198228031003A0319C428C52879
:10018800D3288231CD228031003A0319CC28CD28DA
:10019800D0280130F80009290230F80009298231F5
:1001A800CD228031003A0319DA28DB28DE28033013
:1001B800F80009290430F800092982317A228031AF
:1001C800823191228031003A0319EB28EC281F294B
:1001D8008231602280311F2982317A2280311F29A1
:1001E800823191228031003A0319FB28FC281F290B
:1001F800EC288231D2228031003A031904290529DA
:100208001F2982316D2280311F297808F100F201FF
:100218007208003A031911291F297108013A0319B4
:10022800E128033A0319F028013A0319F428073A98
:100238000319FD281F298231D9228031080055343D
:1002480015340134003402340034033400340434E7
:1002580000340534003406340034073400340834DC
:100268000034093400340A3400340B3400340C34BC
:1002780000340D3400340D3400340F34003410349D
:10028800003411340034123400341334003414347C
:10029800003415340034163400341734003418345C
:1002A8000034193400341A3400341B3400341C343C
:1002B80000341D3400341E3400341F3400348030C0
:1002C800F3000730F4008131EE2181315530730697
:1002D8001530031974060319722973297D29803092
:1002E8004001A0000730A100A030A20080314C20BE
:1002F80081318030F3000730F4008131EE21813103
:100308007408F7007308F6000130F6070030F73D6F
:100318000800400198019A013B3092003F30940058
:100328007E01CE010730B800B901CF01BA01D00172
:100338003730BB003F30D1003F30BC003F30D200E7
:100348000730A00010307D01C50008307E01A100F3
:1003580011307D01C600080082314122813181318E
:10036800632181318B170B1740010E083C39AC0013
:100378000C083039AD002C08AA000230AA36890BC7
:10038800C2292A08AE002E082D04AB002B088231A2
:10039800312281314001AC00B829312800308B1B53
:1003A8000130F5008B13730850019A0074089B0004
:1003B8001E131E161E1555309F00AA309F009E144E
:1003C8000000000050011E11750C031C8B1303184C
:1003D8008B17080000308B1B0130F5008B13730856
:1003E80050019A0074089B001E131E1400000000A0
:1003F800750C031C8B1303188B1750011D08F40090
:100408001C08F30008000130F0007008FA070A30F1
:100418007A06031D102A112A132A400118151430D0
:100428007A06031D182A192A1C2A40011811FA01F4
:10043800080069304B019F009B309D009C014E01D4
:100448008C1296160730F3000230F4008231AB228A
:10045800823180304B019E000800F30073080319B5
:10046800362A372A3F2A0D30730203183C2A3D2AC0
:100478003F2A0130402A0030080082318722823129
:1004880081318D2182318231B12282318231D6226D
:10049800823182311D22823108004E018C124001C6
:1004A8003D083E040319592A5A2A5F2A3E088A0041
:1004B8003D080A0082310800400135083604031956
:1004C800662A672A6C2A36088A0035080A008231AB
:1004D80008004001370838040319732A742A792A56
:1004E80038088A0037080A008231080040013308BA
:1004F80034040319802A812A862A34088A0033089A
:100508000A0082310800403043018F000630F300B2
:1005180073089004910190120800031043010F1C06
:1005280003140030093D0800031043018F1E031413
:100538000030093D0800FE0012001E00FE0BA02A34
:100548000034640080010131890BA62A0034740844
:100558004001BE007308BD0008005101910103303D
:100568009300920108008231DF2282314001BC00F1
:1005780008008231DF2282314001BB00080079087F
:100588008231C82282310800F000700843018C00D3
:10059800080043010F0C890C0139080043010F08BA
:1005A8000139080050018C010800430110160800A9
:0C05B8004E018D10080043010C080800E3
:020000040001F9
:08000000FF3FFF3FFF3FFF3F00
:0A000E00CD3FE73FFF3FEF3FFF3F0C
:00000001FF
