:020000003128A5
:100008007E1480314E01961E0A280B2813288C1E58
:100018000E280F2813288231942280312F280B1F95
:10002800162817282F28171D1A281B2826280D1DC3
:100038001E281F282628400149088A0048080A0067
:1000480080312F28971C29282A282F288D1C2D28F5
:100058002E282F281F287E100900D02F8030F3006B
:100068000730F40082311E22803155307306740443
:1000780003193F284028B12880304001AC000730E0
:10008800AD000030AE00AF005530B0000030B10018
:1000980081319521803181304001AC000730AD00BD
:1000A8000030AE00AF000030B000B10081319521C2
:1000B800803182304001AC000730AD000030AE0026
:1000C800AF000030B000B10081319521803183301C
:1000D8004001AC000730AD000030AE00AF0000308A
:1000E800B000B10081319521803184304001AC00ED
:1000F8000730AD000030AE00AF000030B000B100F6
:1001080081319521803185304001AC000730AD0048
:100118000030AE00AF000030B000B1008131952151
:10012800803186304001AC000730AD000030AE00B1
:10013800AF000030B000B1008131952180318730A7
:100148004001AC000730AD000030AE00AF00003019
:10015800B000B1008131952180310800E0304001C4
:100168002005A80007302105A90000308B1B0130AD
:10017800AA0029082106031DC328280820060319F8
:10018800C628C728C82827298B132108F400200867
:10019800F30082310222803150011E131E159E1673
:1001A8004001AB01200850019A004001210850018C
:1001B8009B0040012B08A400A501A435A50D240827
:1001C800220786002508233D8700010850019C006E
:1001D80040012B08A400A501A435A50D2408220779
:1001E80086002508233D8700403FA600413FA70021
:1001F800270850019D001F3040012B06031D0529CB
:100208000629082950019E12553050019F00AA3036
:100218009F009E140000000001304001A00700303C
:10022800A13D0130A4002408AB0720302B02031C99
:100238001E291F29D62850011E1140012A0C031C13
:100248008B1303188B1708008331222381318231E5
:10025800E9228131003A03193229332943298331AC
:1002680013238131003A03193A293B293F290130E8
:100278004001CA007B2902304001CA007B29833132
:1002880013238131003A03194A294B294F29033096
:100298004001CA007B2904304001CA007B29823111
:1002A800CB2281318231E2228131003A03195D2962
:1002B8005E2991298231B122813191298231CB2263
:1002C800813191298231E2228131003A03196D2965
:1002D8006E2991295E29833118238131003A031947
:1002E8007629772991298231BE22813191294A08BC
:1002F800F100F2017208003A031983299129710863
:10030800013A03195329033A03196229013A0319D7
:100318006629073A03196F29912983311F238131EF
:100328000800E03040012C05B30007302D05B4006B
:100338002C081F39B200B50135083307F30034081B
:100348000318340AF40082311E2281314001350835
:10035800F600F701F635F70D76082E0786007708C0
:100368002F3D87007308C03F7408C13F0130F60075
:100378007608B50720303502031CC329C429A029F3
:100388003208F600F701F635F70D76082E078600D5
:1003980077082F3D87003008C03F3108C13F340837
:1003A800A1003308A0002F08A3002E08A200803166
:1003B800B22081310800400198019A013B30920037
:1003C8003F3094007E01CE010730B800B901CF015B
:1003D800BA01D0013730BB003F30D1003F30BC00FC
:1003E8003F30D2000730A00010307D01C500083032
:1003F8007E01A10011307D01C600080000308B1B72
:100408000130F5008B13730850019A0074089B00A3
:100418001E131E161E1555309F00AA309F009E14ED
:100428000000000050011E11750C031C8B130318EB
:100438008B17080000308B1B0130F5008B137308F5
:1004480050019A0074089B001E131E14000000003F
:10045800750C031C8B1303188B1750011D08F4002F
:100468001C08F30008000130F0007008FA070A3091
:100478007A06031D402A412A432A400118151430E0
:100488007A06031D482A492A4C2A40011811FA0104
:10049800080069304B019F009B309D009C014E0174
:1004A8008C1296163730F3000230F4008231FD22A8
:1004B800823180304B019E00080083312523823130
:1004C8004001CC006D2A7808393E860087014C0827
:1004D800810003307802031C722A732A672A0800F5
:1004E800F30073080319792A7A2A822A0D307302D5
:1004F80003187F2A802A822A0130832A00300800C4
:100508008231D82282318131DF2182318331032344
:10051800823183311C23823182314D22823108009D
:100528004E018C1240014D084E0403199C2A9D2A45
:10053800A22A4E088A004D080A008231080030308D
:1005480040010C05F3000E08F4000230F436890B64
:10055800AA2A74080F3973040800400144084504A6
:100568000319B72AB82ABD2A45088A0044080A0090
:10057800823108004001460847040319C42AC52AE5
:10058800CA2A47088A0046080A0082310800400142
:10059800420843040319D12AD22AD72A43088A00D9
:1005A80042080A0082310800403043018F000630BB
:1005B800F30073089004910190120800031043019E
:1005C8000F1C03140030093D0800031043018F1E5F
:1005D80003140030093D080083312523823140018E
:1005E800CB00F8010800640080010131890BF82A6A
:1005F800003474084001CE007308CD000800510192
:1006080091010330930092010800790883310E2389
:1006180083310800F000700843018C000800430192
:100628000F0C890C0139080043010F080139080033
:1006380050018C0108004301101608004E018D106E
:08064800080043010C08080042
:100F00000034003400340034003400340034003441
:100F10000034003400340034003400340034003431
:100F20000034003400340034003400340034003421
:100F30000034003400340034003400340034003411
:100F40000034003400340034003400340034003401
:100F500000340034003400340034003400340034F1
:100F600000340034003400340034003400340034E1
:100F700000340034003400340034003400340034D1
:100F800000340034003400340034003400340034C1
:100F900000340034003400340034003400340034B1
:100FA000F801F901FA01393084000030850014306D
:100FB0008231F72287317E104001DE2F8231842278
:100FC00087318231A32287314001B800380882314D
:100FD00074228731003A0319EE2FEF2FF42F4001CE
:100FE00038088031322087318B170B170A304001C7
:0E0FF000B7000130B6003608B707F62F3128DB
:020000040001F9
:08000000FF3FFF3FFF3FFF3F00
:0A000E00CD3FE73FFF3FEF3FFF3F0C
:00000001FF
