:020000003128A5
:100008007E1480314E01961E0A280B2813288C1E58
:100018000E280F28132884310B2480312F280B1F1A
:10002800162817282F28171D1A281B2826280D1DC3
:100038001E281F282628400145088A0044080A006F
:1000480080312F28971C29282A282F288D1C2D28F5
:0C0058002E282F281F287E100900D02819
:1000800001340034013400340134003401340034CC
:1000900001340034013400340234003402340034BA
:1000A00002340034023400340234003402340034A8
:1000B0000334003403340034033400340334003494
:1000C0000334003403340034043400340434003482
:1000D0000434003404340034043400340434003470
:1000E000053400340534003405340034053400345C
:1000F000053400340534003406340034063400344A
:100100000634003406340034063400340634003437
:100110000734003407340034073400340734003423
:100120000734003407340034083400340834003411
:1001300008340034083400340834003408340034FF
:1001400009340034093400340934003409340034EB
:1001500009340034093400340A3400340A340034D9
:100160000A3400340A3400340A3400340A340034C7
:100170000B3400340B3400340B3400340B340034B3
:100180000B3400340B3400340C3400340C340034A1
:100190000C3400340C3400340C3400340C3400348F
:1001A000F801F901FA01373084000030850013307E
:1001B00084316E248031A0308400003085004030CE
:1001C00084316E2480317E104001702B4001B500D7
:1001D0008030F3000730F4008331AB238031553099
:1001E000730674040319F528F628E92980304001C4
:1001F000AA000730AB00A030AC005530AD00003095
:10020000AE008231C322803181304001AA00073024
:10021000AB00A030AC000030AD00AE008231C32294
:10022000803182304001AA000730AB00A030AC0022
:100230003508B300B4013308F3003408F4000C307F
:10024000F5000030F60083314E23803134307307DF
:1002500084000030743D80388500003F4001AD00CF
:10026000013FAE008231C322803183304001AA00B9
:100270000730AB00A030AC003508B300B401330840
:10028000F3003408F4000C30F5000030F600833140
:100290004E2380313630730784000030743D80383F
:1002A0008500003F4001AD00013FAE008231C32216
:1002B000803184304001AA000730AB00A030AC0090
:1002C0003508B300B4013308F3003408F4000C30EF
:1002D000F5000030F60083314E238031383073074B
:1002E00084000030743D80388500003F4001AD003F
:1002F000013FAE008231C322803185304001AA0027
:100300000730AB00A030AC003508B300B4013308AF
:10031000F3003408F4000C30F5000030F6008331AF
:100320004E2380313A30730784000030743D8038AA
:100330008500003F4001AD00013FAE008231C32285
:10034000803186304001AA000730AB00A030AC00FD
:100350003508B300B4013308F3003408F4000C305E
:10036000F5000030F60083314E2380313C307307B6
:1003700084000030743D80388500003F4001AD00AE
:10038000013FAE008231C322803187304001AA0094
:100390000730AB00A030AC003508B300B40133081F
:1003A000F3003408F4000C30F5000030F60083311F
:1003B0004E2380313E30730784000030743D803816
:1003C0008500003F4001AD00013FAE008231C322F5
:1003D0008031080084319D24813184316024813151
:1003E000003A0319F429F529052A84318A24813138
:1003F000003A0319FC29FD29012A01304001C600F9
:100400003D2A02304001C6003D2A84318A248131D0
:10041000003A03190C2A0D2A112A03304001C600A4
:100420003D2A04304001C6003D2A843142248131F6
:10043000843159248131003A03191F2A202A532A72
:10044000843128248131532A843142248131532A32
:10045000843159248131003A03192F2A302A532A32
:10046000202A843193248131003A0319382A392A09
:10047000532A843135248131532A4608F100F20190
:100480007208003A0319452A532A7108013A0319E0
:10049000152A033A0319242A013A0319282A073A8C
:1004A0000319312A532A84319A2481310800E0301B
:1004B00040012005A60007302105A70000308B1B56
:1004C0000130A80027082106031D682A26082006F7
:1004D00003196B2A6C2A6D2AC22A8B132108F40097
:1004E0002008F30083318F23823150011E131E1523
:1004F0009E164001A901200850019A0040012108E0
:1005000050019B00400129352207A30023088600E3
:100510008701010850019C00400129352207A300F2
:10052000230886008701403FA400413FA50025081D
:1005300050019D001F3040012906031DA02AA12A59
:10054000A32A50019E12553050019F00AA309F00EF
:100550009E140000000001304001A0070030A13DC2
:100560000130A3002308A90720302902031CB92A5F
:10057000BA2A7B2A50011E114001280C031C8B1340
:1005800003188B170800E03040012A05B00007303F
:100590002B05B1002A081F39AF00B201320830071D
:1005A000F30031080318310AF4008331AB238231A0
:1005B000400132352C07F700770886008701730861
:1005C000C03F7408C13F0130F7007708B207203000
:1005D0003202031CEC2AED2ACE2A2F352C07F70015
:1005E0007708860087012D08C03F2E08C13F3108DB
:1005F000A1003008A0002C08A200823157228231CD
:1006000008000130F0007008FA0740014903031D9B
:100610000A2B0B2B1B2B05307A06031D102B112BDD
:10062000122B18150A307A06031D172B182B2A2BAC
:100630001811FA012A2B32307A06031D202B212BA8
:10064000222B181564307A06031D272B282B2A2B02
:100650001811192B0800400198019A013B309200B3
:100660003F3094007E01CE010730B800B901CF01C0
:10067000BA01D0013730BB003F30D1003F30BC0061
:100680003F30D2000730A00010307D01C500083097
:100690007E01A10011307D01C60008004001A001CB
:1006A000A101731C542B552B5A2B75084001A00730
:1006B0007608A13D0130F535F60D890B5B2B013035
:1006C000F436F30C890B602B73087404031D692B3B
:1006D0006A2B512B40012108F4002008F300080088
:1006E0008331FB23833184311A2483314001B600E6
:1006F0003608323E8331EB238331003A0319812BD4
:10070000822B882B400136088031E62083318B2BE9
:1007100084318F2483318B170B178D2B31280030B8
:100720008B1B0130F5008B13730850019A0074087D
:100730009B001E131E161E1555309F00AA309F00E9
:100740009E140000000050011E11750C031C8B1339
:1007500003188B17080000308B1B0130F5008B133A
:10076000730850019A0074089B001E131E140000A9
:100770000000750C031C8B1303188B1750011D0808
:10078000F4001C08F300080069304B019F009B3007
:100790009D009C014E018C1296160130F30003302F
:1007A000F40084317424833180304B019E000800B2
:1007B0008431A02483314001C800E42B7808373EFF
:1007C000860087014808810003307802031CE92B6A
:1007D000EA2BDE2B0800F30073080319F02BF12B32
:1007E000F92B0D3073020318F62BF72BF92B013080
:1007F000FA2B0030080084314F24833183312B23BE
:10080000833184317A248331843197248331833155
:10081000C423833108004E018C1240014A084B0466
:100820000319132C142C192C4B088A004A080A00AF
:1008300084310800303040010C05F3000E08F4004C
:100840000230F436890B212C74080F397304080028
:1008500040014008410403192E2C2F2C342C410850
:100860008A0040080A00843108004001420843041D
:1008700003193B2C3C2C412C43088A0042080A00F7
:100880008431080040013E083F040319482C492CDC
:100890004E2C3F088A003E080A0084310800403090
:1008A00043018F000630F300730890049101901209
:1008B0000800031043010F1C03140030093D080019
:1008C000031043018F1E03140030093D08008431DA
:1008D000A02484314001C700F801080064008001B1
:1008E0000131890B6F2C003474084001CB00730870
:1008F000CA000800510191010330930092010800E1
:1009000079088431852484310800F000700843019F
:100910008C00080043010F0C890C013908004001CC
:10092000C901C90A080043010F0801390800500134
:100930008C0108004301101608004E018D100800BC
:0609400043010C08080051
:020000040001F9
:08000000FF3FFF3FFF3FFF3F00
:0A000E00CD3FE73FFF3FEF3FFF3F0C
:00000001FF
