:020000003128A5
:100008007E1480314E01961E0A280B2813288C1E58
:100018000E280F28132884315F2480312F280B1FC6
:10002800162817282F28171D1A281B2826280D1DC3
:100038001E281F282628400130088A002F080A0099
:1000480080312F28971C29282A282F288D1C2D28F5
:0C0058002E282F281F287E100900D02819
:1000800001340034013400340134003401340034CC
:1000900001340034013400340234003402340034BA
:1000A00002340034023400340234003402340034A8
:1000B0000334003403340034033400340334003494
:1000C0000334003403340034043400340434003482
:1000D0000434003404340034043400340434003470
:1000E000053400340534003405340034053400345C
:1000F000053400340534003406340034063400344A
:100100000634003406340034063400340634003437
:100110000734003407340034073400340734003423
:100120000734003407340034083400340834003411
:1001300008340034083400340834003408340034FF
:1001400009340034093400340934003409340034EB
:1001500009340034093400340A3400340A340034D9
:100160000A3400340A3400340A3400340A340034C7
:100170000B3400340B3400340B3400340B340034B3
:100180000B3400340B3400340C3400340C340034A1
:100190000C3400340C3400340C3400340C3400348F
:1001A000F801F901FA01203084000030850019308F
:1001B0008431C3248031A030840000308500403079
:1001C0008431C32480317E104001A92B4001CE0030
:1001D0008030F3000730F4008331E623803155305E
:1001E000730674040319F528F628E92980304001C4
:1001F000C3000730C400A030C5005530C600003031
:10020000C7008231C322803181304001C3000730F2
:10021000C400A030C5000030C600C7008231C32230
:10022000803182304001C3000730C400A030C500D7
:100230004E08CC00CD014C08F3004D08F4000C3002
:10024000F5000030F60083318723803134307307A6
:1002500084000030743D80388500003F4001C600B6
:10026000013FC7008231C322803183304001C30087
:100270000730C400A030C5004E08CC00CD014C08AA
:10028000F3004D08F4000C30F5000030F600833127
:10029000872380313630730784000030743D803806
:1002A0008500003F4001C600013FC7008231C322E4
:1002B000803184304001C3000730C400A030C50045
:1002C0004E08CC00CD014C08F3004D08F4000C3072
:1002D000F5000030F6008331872380313830730712
:1002E00084000030743D80388500003F4001C60026
:1002F000013FC7008231C322803185304001C300F5
:100300000730C400A030C5004E08CC00CD014C0819
:10031000F3004D08F4000C30F5000030F600833196
:10032000872380313A30730784000030743D803871
:100330008500003F4001C600013FC7008231C32253
:10034000803186304001C3000730C400A030C500B2
:100350004E08CC00CD014C08F3004D08F4000C30E1
:10036000F5000030F6008331872380313C3073077D
:1003700084000030743D80388500003F4001C60095
:10038000013FC7008231C322803187304001C30062
:100390000730C400A030C5004E08CC00CD014C0889
:1003A000F3004D08F4000C30F5000030F600833106
:1003B000872380313E30730784000030743D8038DD
:1003C0008500003F4001C600013FC7008231C322C3
:1003D000803108008531232581318431B524813174
:1003E000003A0319F429F529052A85310D258131B3
:1003F000003A0319FC29FD29012A01304001B3000C
:100400003D2A02304001B3003D2A85310D2581315E
:10041000003A03190C2A0D2A112A03304001B300B7
:100420003D2A04304001B3003D2A843197248131B4
:100430008431AE248131003A03191F2A202A532A1D
:1004400084318A248131532A843197248131532A7B
:100450008431AE248131003A03192F2A302A532ADD
:10046000202A853116258131003A0319382A392A84
:10047000532A8331FF238131532A3308F100F201DB
:100480007208003A0319452A532A7108013A0319E0
:10049000152A033A0319242A013A0319282A073A8C
:1004A0000319312A532A8531202581310800E03093
:1004B00040013905BF0007303A05C00000308B1BF2
:1004C0000130C10040083A06031D682A3F0839067A
:1004D00003196B2A6C2A6D2AC22A8B133A08F4007E
:1004E0003908F3008331CA23823150011E131E15CF
:1004F0009E164001C201390850019A0040013A0895
:1005000050019B00400142353B07BC003C0886007F
:100510008701010850019C00400142353B07BC00A7
:100520003C0886008701403FBD00413FBE003E08B9
:1005300050019D001F3040014206031DA02AA12A40
:10054000A32A50019E12553050019F00AA309F00EF
:100550009E140000000001304001B9070030BA3D90
:100560000130BC003C08C20720304202031CB92AFB
:10057000BA2A7B2A50011E114001410C031C8B1327
:1005800003188B170800E03040014305C90007300D
:100590004405CA0043081F39C800CB014B0849076E
:1005A000F3004A0803184A0AF4008331E623823133
:1005B00040014B354507F70077088600870173082F
:1005C000C03F7408C13F0130F7007708CB072030E7
:1005D0004B02031CEC2AED2ACE2A48354507F700CA
:1005E0007708860087014608C03F4708C13F4A0890
:1005F000BA004908B9004508BB0082315722823150
:10060000080084317C24833177308431FE248331A7
:1006100000308431F9248331EA30F3000130F400F2
:100620008431E72483310030F3000030F40084315A
:10063000ED2483310330F3000530F4008431D524F8
:1006400083311530F3000430F4008431E124833128
:10065000BC30F3000430F4008431F32483310030E3
:10066000F3000030F4008431DB24833185311D2513
:10067000833108000130F0007008FA0740013703A9
:10068000031D432B442B542B05307A06031D492BA5
:100690004A2B4B2B18150A307A06031D502B512B71
:1006A000632B1811FA01632B32307A06031D592B84
:1006B0005A2B5B2B181564307A06031D602B612BB7
:1006C000632B1811522B0800400198019A013B300E
:1006D00092003F3094007E01CE010730B800B9018E
:1006E000CF01BA01D0013730BB003F30D1003F30DD
:1006F000BC003F30D2000730A00010307D01C500A3
:1007000008307E01A10011307D01C60008004001C3
:10071000B901BA01731C8D2B8E2B932B75084001E8
:10072000B9077608BA3D0130F535F60D890B942BE3
:100730000130F436F30C890B992B73087404031DF4
:10074000A22BA32B8A2B40013A08F4003908F300AE
:10075000080084314F24833184316E248331400179
:10076000CF004F0884313F248331003A0319B92B5D
:10077000BA2BC02B40014F088031E6208331C32BB8
:100780008531122583318331012383318B170B1778
:10079000C82B312800308B1B0130F5008B137308F8
:1007A00050019A0074089B001E131E161E1555302A
:1007B0009F00AA309F009E140000000050011E11EF
:1007C000750C031C8B1303188B17080000308B1B50
:1007D0000130F5008B13730850019A0074089B00D8
:1007E0001E131E1400000000750C031C8B1303184D
:1007F0008B1750011D08F4001C08F300080040018D
:100800002D082E040319052C062C142C2E088A0002
:100810002D080A00843103307906031D102C112C99
:10082000142C853129258331080085312625843112
:100830004001B5000330790203181F2C202C272C0F
:100840007908203E86008701350881002A2C8531F1
:1008500026258431080069304B019F009B309D00A4
:100860009C014E018C1296163A30F3000330F400CE
:100870008431C924843180304B019E000800F3008C
:1008800073080319442C452C4D2C0D3073020318AA
:100890004A2C4B2C4D2C01304E2C0030080084315A
:1008A000A42484318331642384318431CF2484317E
:1008B00085311A25843184312B24843108004E017E
:1008C0008C124001500851040319672C682C6D2CC0
:1008D00051088A0050080A00843108003030400175
:1008E0000C05F3000E08F4000230F436890B752C69
:1008F00074080F39730408004301901A802C812C6E
:10090000892C40308F000630F30073089004910169
:100910009016080040012B082C040319902C912CF0
:10092000962C2C088A002B080A008431080040010C
:1009300029082A0403199D2C9E2CA32C2A088A001E
:1009400029080A0084310800403043018F00063036
:10095000F300730890049101901208000310430102
:100960000F1C03140030093D0800031043018F1EC3
:1009700003140030093D08008531262584314001EB
:10098000B400F9010800640080010131890BC42C16
:10099000003474084001D1007308D00008005101F0
:1009A0009101033093009201080074084001AC00EB
:1009B0007308AB00080074084001A6007308A50086
:1009C000080074084001AE007308AD000800740808
:1009D0004001B0007308AF00080074084001A8008F
:1009E0007308A700080074084001AA007308A90052
:1009F0000800F300733543018E000800F3007335DF
:100A000043018D00080078088531082585310800EC
:100A1000F000700843018C00080043010F0C890CA2
:100A2000013908004001B701B70A080043010F0867
:100A30000139080050018C0108004E01971408008C
:100A40004301101608004E018D10080043010C08E8
:040A50000800080092
:020000040001F9
:08000000FF3FFF3FFF3FFF3F00
:0A000E00CD3FE73FFF3FEF3FFF3F0C
:00000001FF
