:020000001428C2
:100008007E1480314E01961E0A280B2812288C1E59
:100018000E280F28122880311A2080317E100900FE
:100028001528F501F6017E10400177284E018C1243
:1000380073087404031921282228272874088A00C1
:1000480073080A0080310130F0007008F6070A30A2
:100058007606031D3028312833284001181514303E
:100068007606031D382839283C2840011811F60166
:100078000800400198019A013B3092003F309400FB
:1000880003307E01CE000330B800B901CF01BA01B8
:10009800D0013730BB003F30D1003F30BC003F308B
:1000A800D200080069304B019F009B309D009C01E5
:1000B8004E018C1296168E30F1000030F20080311D
:1000C8008620803180304B019E00080080313D2021
:1000D800803180318020803180318B2080318031A7
:1000E80056208031080080316A2080318B170B1729
:1000F800400118157E2814285101910103309300FE
:10010800920108007208F4007108F3000800500119
:060118008C010800080044
:020000040001F9
:08000000FF3FFF3FFF3FFF3F00
:0A000E00CD3FE73FFF3FEF3FFF3F0C
:00000001FF
