:020000001428C2
:100008007E1480314E01961E0A280B2812288C1E59
:100018000E280F2812288731D52780317E10090035
:10002800D02F400198019A013B3092003F30940054
:1000380003307E01CE000330B800B901CF01BA0108
:10004800D0013730BB003F30D1003F30BC003F30DB
:10005800D200080069304B019F009B309D009C0135
:100068004E018C129616FE30F1000730F2008031F6
:100078005820803180304B019E00080080311520C7
:1000880080318731F827803180315D20803180319F
:100098002E20803108008031422080318B170B17C9
:1000A80040011815562814287208F4007108F30046
:0800B800080050018C01080052
:100F000055340034003400340034003400340034EC
:100F10000134013401340134013401340234023427
:100F2000023402340234023403340334033403340D
:100F300003340334043404340434043404340434F3
:100F400005340534053405340534053406340634D7
:100F500006340634063406340734073407340734BD
:100F600007340734083408340834083408340834A3
:100F70000934093409340934093409340A340A3487
:100F80000A340A340A340A340B340B340B340B346D
:100F90000B340B340C340C340C340C340C340C3453
:100FA000F501F6017E1040014F284E018C127308A6
:100FB00074040319DC2FDD2FE22F74088A007308F4
:100FC0000A0087310130F0007008F6070A30760613
:100FD000031DEB2FEC2FEE2F400118151430760671
:100FE000031DF32FF42FF72F40011811F60108000D
:0E0FF0005101910103309300920108000800A6
:020000040001F9
:08000000FF3FFF3FFF3FFF3F00
:0A000E00CD3FE73FFF3FEF3FFF3F0C
:00000001FF
