:020000002428B2
:100008007E1480310B1F09280A2822284E01171D4B
:100018000E280F2819280D1D1228132819287108D1
:100028008A0070080A0080312228971C1C281D2885
:1000380022288D1C20282128222813287E10090018
:100048002528F001F101F201F301F401F501400165
:10005800A001A101A201A301A401A501A601A70174
:10006800A801A9017E104001C528813151218031A4
:10007800813121218031003A03194328442852282C
:1000880081313D218031003A03194B284C284F28F3
:100098000130F20088280230F200882881313D21A1
:1000A8008031003A031959285A285D280330F20094
:1000B80088280430F2008828813103218031813179
:1000C8001A218031003A03196A286B289E2880314A
:1000D800E92080319E288131032180319E28813199
:1000E8001A218031003A03197A287B289E286B2828
:1000F800813147218031003A0319832884289E28BA
:100108008031F62080319E287208F700F8017808BF
:10011800003A031990289E287708013A03196028A5
:10012800033A03196F28013A03197328073A031988
:100138007C289E2881314E21803108004001980199
:100148009A013B3092003F3094007E01CE01073087
:10015800B800B901CF01BA01D0013730BB003F3038
:10016800D1003F30BC003F30D2000730A000103033
:100178007D01C50008307E01A10011307D01C60057
:1001880008008031DC20803140010E083C39AA008B
:100198000C083039AB002A08FA000230FA36890B0D
:1001A800D2287A08AC002C082B04AC00C8282428D4
:1001B8008131102180318031A22080318131282184
:1001C800803181314B218031080040012608270405
:1001D8000319EF28F028F52827088A0026080A00BE
:1001E800803108004001280829040319FC28FD284B
:1001F800022929088A0028080A00813108004001DC
:1002080024082504031909290A290F2925088A0021
:1002180024080A0081310800403043018F0006306D
:10022800F900790890049101901208000310430125
:100238000F1C03140030093D0800031043018F1EF2
:1002480003140030093D0800510191010330930067
:100258009201080075088131332181310800F600C8
:10026800760843018C000800813154218131F40063
:10027800080043010F0C890C013908008131542111
:100288008131F300080043010F08013908005001CB
:100298008C0108004301101608004E018D1008005B
:0602A80043010C080800F0
:020000040001F9
:08000000FF3FFF3FFF3FFF3F00
:0A000E00CD3FE73FFF3FFF3FFF3FFC
:00000001FF
