:020000003128A5
:100008007E1480314E01961E0A280B2813288C1E58
:100018000E280F2813288131572180312F280B1FD4
:10002800162817282F28171D1A281B2826280D1DC3
:100038001E281F28262840012B088A002A080A00A3
:1000480080312F28971C29282A282F288D1C2D28F5
:100058002E282F281F287E1009003228F701F801C2
:10006800F90120308400003085000D308131BD2138
:1000780080317E104001E228823133228031813183
:10008800B6218031003A03194A284B285928823171
:100098001D228031003A031952285328562801306E
:1000A800F7008F280230F7008F2882311D22803117
:1000B800003A03196028612864280330F7008F2864
:1000C8000430F7008F2881318E2180318131AF21B2
:1000D8008031003A031971287228A52881317421CA
:1000E8008031A52881318E218031A5288131AF2129
:1000F8008031003A031981288228A5287228823184
:1001080026228031003A03198A288B28A5288131B4
:1001180081218031A5287708F100F2017208003AA0
:1001280003199728A5287108013A03196728033A83
:1001380003197628013A03197A28073A03198328FC
:10014800A528823130228031080081316621803132
:100158000730823109228031003082310422803117
:100168004030F3000030F4008131E7218031003065
:10017800F3000030F4008131ED2180310E30F300BE
:100188000230F4008131D52180311830F30002307B
:10019800F4008131E1218031F930F3000130F400BD
:1001A8008131F32180310030F3000030F4008131D7
:1001B800DB21803182312D228031080081314721B5
:1001C800803140010E083C39AE000C083039AF00D0
:1001D8002E08F5000230F536890BEF287508B000B7
:1001E80030082F04AD0018158031A9208031400156
:1001F8002D088131CF2180318231222280310B308C
:10020800F6002630F5005E30890B0829F50B082921
:10021800F60B0829E5283128400198019A013B305E
:1002280092003F3094007E01CE010730B800B9013A
:10023800CF01BA01D0013730BB003F30D1003F3089
:10024800BC003F30D2000730A00010307D01C5004F
:1002580008307E01A10011307D01C6000800693018
:100268004B019F009B309D009C014E018C129616FD
:100278003930F3000230F4008131C32181318030FC
:100288004B019E00080081319B2181318131102171
:1002980081318131C921813182312A2281318131F3
:1002A8003321813108004E018C124001310832049B
:1002B80003195F296029652932088A0031080A0074
:1002C800813108004301901A6A296B29732940304B
:1002D8008F000630F300730890049101901608000F
:1002E80040012608270403197A297B298029270831
:1002F8008A0026080A0081310800400128082904DC
:100308000319872988298D2929088A0028080A00BD
:1003180081310800400124082504031994299529EE
:100328009A2925088A0024080A00813108004030EB
:1003380043018F000630F300730890049101901276
:100348000800403043018F000630F3007308900422
:10035800910190120800031043010F1C0314003090
:10036800093D0800031043018F1E03140030093DA6
:100378000800640080010131890BBE29003474082B
:100388004001B2007308B100080051019101033027
:10039800930092010800F40074088131FF21813133
:1003A800080074084001A7007308A6000800740834
:1003B8004001A1007308A000080074084001A900CA
:1003C8007308A800080074084001AB007308AA006D
:1003D800080074084001A3007308A200080074080C
:1003E8004001A5007308A40008008231362281313B
:1003F8004001AC000800F300730843018C000800BA
:10040800F300733543018E000800F3007335430190
:100418008D00080079088231132282310800F0002B
:10042800700843018C000800823136228231F800BE
:10043800080043010F0C890C013908008131A521FE
:100448008231080043010F080139080050018C016E
:1004580008004E01971408004301101608004E01C9
:0C0468008D10080043010C08080008007B
:020000040001F9
:08000000FF3FFF3FFF3FFF3F00
:0A000E00CD3FE73FFF3FFF3FFF3FFC
:00000001FF
