:020000002528B1
:100008007E1480310B1F09280A2823284E01171D4A
:100018000E280F281A280D1D122813281A28400107
:100028002B088A002A080A0080312328971C1D28DB
:100038001E2823288D1C21282228232813287E10D7
:1000480009002628F701F801F90120308400003062
:1000580085000D3081318B2180317E104001D628FA
:100068008131FB218031813184218031003A0319AB
:100078003E283F284D288131E5218031003A031977
:10008800462847284A280130F70083280230F7001D
:1000980083288131E5218031003A031954285528F5
:1000A80058280330F70083280430F700832881316B
:1000B8005C21803181317D218031003A0319652826
:1000C80066289928813142218031992881315C2123
:1000D8008031992881317D218031003A03197528B2
:1000E8007628992866288131EE218031003A031953
:1000F8007E287F28992881314F21803199287708D7
:10010800F100F2017208003A03198B289928710846
:10011800013A03195B28033A03196A28013A0319BB
:100128006E28073A0319772899288131F8218031F8
:10013800080081312721803107308131D121803178
:1001480000308131CC2180313430F3000030F400AC
:100158008131AF2180310030F3000030F40081316B
:10016800B5218031D630F3000130F40081319D2172
:100178008031E030F3000130F4008131A921803171
:10018800C130F3000130F4008131BB2180310030EF
:10019800F3000030F4008131A32180318131F52151
:1001A8008031080081313521803140010E083C3909
:1001B800AE000C083039AF002E08F5000230F536D5
:1001C800890BE3287508B00030082F04AD00181516
:1001D80080319D20803140012D0881319721803167
:1001E8008131EA2180310B30F6002630F5005E308F
:1001F800890BFC28F50BFC28F60BFC28D9282528A8
:10020800400198019A013B3092003F3094007E01F2
:10021800CE010730B800B901CF01BA01D00137309B
:10022800BB003F30D1003F30BC003F30D200073028
:10023800A00010307D01C50008307E01A1001130FA
:100248007D01C60008004301901A2B292C29342966
:1002580040308F000630F300730890049101901627
:100268000800813169218131813104218131813155
:10027800912181318131F221813108004001260824
:1002880027040319482949294E2927088A002608DE
:100298000A0081310800400128082904031955295A
:1002A80056295B2929088A0028080A008131080094
:1002B80040012408250403196229632968292508AF
:1002C8008A0024080A0081310800403043018F0069
:1002D8000630F30073089004910190120800403032
:1002E80043018F000630F3007308900491019012C7
:1002F8000800031043010F1C03140030093D0800D7
:10030800031043018F1E03140030093D08006400E8
:1003180080010131890B8C2900345101910103308E
:10032800930092010800F40074088131C7218131DB
:10033800080074084001A7007308A60008007408A4
:100348004001A1007308A000080074084001A9003A
:100358007308A800080074084001AB007308AA00DD
:10036800080074084001A3007308A200080074087C
:100378004001A5007308A40008008131FE218131E5
:100388004001AC000800F300730843018C0008002A
:10039800F300733543018E000800F3007335430101
:1003A8008D00080079088131DB2181310800F000D7
:1003B800700843018C0008008131FE218131F8006A
:1003C800080043010F0C890C0139080081317321A1
:1003D8008131080043010F080139080050018C01E0
:1003E80008004E01971408004301101608004E013A
:0A03F8008D10080043010C080800F6
:020000040001F9
:08000000FF3FFF3FFF3FFF3F00
:0A000E00CD3FE73FFF3FFF3FFF3FFC
:00000001FF
