:020000003128A5
:100008007E1480314E01961E0A280B2813288C1E58
:100018000E280F28132881317F2180312F280B1FAC
:10002800162817282F28171D1A281B2826280D1DC3
:100038001E281F28262840012B088A002A080A00A3
:1000480080312F28971C29282A282F288D1C2D28F5
:100058002E282F281F287E1009003228F701F801C2
:10006800F90120308400003085000D308131EC2109
:1000780080317E104001E228823162228031813154
:10008800E5218031003A03194A284B285928823142
:100098004C228031003A031952285328562801303F
:1000A800F7008F280230F7008F2882314C228031E8
:1000B800003A03196028612864280330F7008F2864
:1000C8000430F7008F288131B62180318131DE215B
:1000D8008031003A031971287228A52881319C21A2
:1000E8008031A5288131B6218031A5288131DE21D2
:1000F8008031003A031981288228A5287228823184
:1001080055228031003A03198A288B28A528813185
:10011800A9218031A5287708F100F2017208003A78
:1001280003199728A5287108013A03196728033A83
:1001380003197628013A03197A28073A03198328FC
:10014800A52882315F228031080081318E218031DB
:1001580007308231382280310030823133228031B9
:100168004030F3000030F400823116228031003034
:10017800F3000030F40082311C2280313D30F3005E
:100188000230F4008231042280314730F30002301B
:10019800F4008231102280312830F3000230F4005C
:1001A8008231222280310030F3000030F4008231A5
:1001B8000A22803182315C228031080081316F212E
:1001C800803181313621803140010E083C39AE0042
:1001D8000C083039AF002E08F5000230F536890BCF
:1001E800F2287508B00030082F04AD0018158031CA
:1001F800A920803140012D088131FE2180318231D2
:10020800512280310B30F6002630F5005E30890B24
:100218000B29F50B0B29F60B0B29E828312840018F
:1002280098019A013B3092003F3094007E01CE0144
:100238000730B800B901CF01BA01D0013730BB008F
:100248003F30D1003F30BC003F30D2000730A00023
:1002580010307D01C50008307E01A10011307D01FC
:10026800C600080081315F21813150011E131E151F
:100278008B139E16E0309A007F309B0089309C00DB
:1002880023309D009E128131D721813108006930C9
:100298004B019F009B309D009C014E018C129616CD
:1002A8006830F3000230F4008131F221813180306E
:1002B8004B019E00080050011E13E0309A007F3069
:1002C8009B001E161E158B138131D72181318B1788
:1002D80050011E1108008131C32181318131132160
:1002E80081318131F8218131823159228131813145
:1002F8004B21813108004E018C1240013108320433
:100308000319872988298D2932088A0031080A00AB
:10031800813108004301901A922993299B29403082
:100328008F000630F30073089004910190160800BE
:100338004001260827040319A229A329A829270868
:100348008A0026080A00813108004001280829048B
:100358000319AF29B029B52929088A0028080A00F5
:10036800813108004001240825040319BC29BD294E
:10037800C22925088A0024080A0081310800403073
:1003880043018F000630F300730890049101901226
:100398000800403043018F000630F30073089004D2
:1003A800910190120800553050019F00AA309F001B
:1003B8009E140800031043010F1C03140030093D6C
:1003C8000800031043018F1E03140030093D080084
:1003D800640080010131890BED2900347408400163
:1003E800B2007308B1000800510191010330930075
:1003F80092010800F400740882312E22813108002D
:1004080074084001A7007308A6000800740840019A
:10041800A1007308A000080074084001A90073082F
:10042800A800080074084001AB007308AA0008007F
:1004380074084001A3007308A20008007408400172
:10044800A5007308A40008008231652282314001AA
:10045800AC000800F300730843018C000800F300A7
:10046800733543018E000800F300733543018D0096
:10047800080079088231422282310800F0007008B1
:1004880043018C000800823165228231F80008009F
:1004980043010F0C890C013908008131CD218231CB
:1004A800080043010F080139080050018C010800B9
:1004B8004E01971408004301101608004E018D10D4
:0A04C800080043010C0808000800BA
:020000040001F9
:08000000FF3FFF3FFF3FFF3F00
:0A000E00CD3FE73FFF3FFF3FFF3FFC
:00000001FF
